:030000000202CF2A
:0C02CF00787FE4F6D8FD75814B02023EFA
:10021E00E4FDFCC3ED9FEC9E5015E4FBFA0BBB0016
:0F022E00010AEB646E4A70F50DBD00010C80E40F
:01023D00229E
:10029F007580F07F647E0012021E75800F02021EB1
:1002AF007580AA7F647E0012021E75805502021EA1
:0100090022D4
:01000A0022D3
:10027600758902E4F58CF58AD2A9D28CD288D2A8E7
:05028600D2AFD2B2224C
:1001AA007E01E4FDE4FCEFC313FF74272EF8E6D3C7
:1001BA00940640034307800E0CBC08EA74482DF8E5
:0901CA00A6070DBD04DE75260137
:0101D3002209
:10000E00E54A1201D4006E070092080076090086B8
:10001E000C00820D007215007A16008A18007E19E7
:10002E0000961C006640009E42006A430062440037
:10003E005645005A46005E4700A64A00A252009A54
:10004E005A008E5E000000A9752501227525022238
:10005E007525032275250422752505227525062290
:10006E0075250722752508227525092275250A2270
:10007E0075250B2275250C2275250D2275250E2250
:10008E0075250F2275251022752511227525122230
:0C009E00752513227525142275251522E6
:1002BF00E52524FE600604700602029F1202AF229B
:10023E00120276E5236006E4F5231201AAE5266094
:0C024E0006E4F52612000E1202BF80E745
:03000B00020006EA
:030006000521329F
:030003000200FEFA
:1000FE00C0E0C0D075D000C000E5246026E521D355
:10010E009420400375220074272522F8A62175211C
:10011E00000522E522B421117524007522007523F5
:10012E00018006752401752100D000D0D0D0E032B8
:1001FA00EF1FAA0670011E4A6019E4FCFDC3ED94C4
:10020A00FAEC6480948050E8000000000DBD000103
:03021A000C80EA6B
:01021D0022BE
:10028B00C2A6D2A5D2A700000000E580339200C21F
:03029B00A7A20017
:01029E00223D
:10025A0012028B40FBC2A6C2A5C2A700008F800073
:0C026A00000000D2A700000000C2A72284
:1001760012028B40FBC2A6C2A5C2A700008F800058
:10018600000000D2A700000000C2A7EF540FC4F879
:10019600540FC868FF8F8000000000D2A70000003F
:0401A60000C2A722CA
:0902DB00EF4480FF7E0002017671
:10013E0012028B40FBD2A6C2A5C2A78F8000000080
:10014E0000D2A700000000C2A7D2A6C2A5C2A70077
:10015E00000000EF540FC454F0F58000000000D2F0
:08016E00A700000000C2A72257
:1000AA007F387E0012025A7F011201FA7F387E00E1
:1000BA0012025A7F011201FA7F287E0012025A7F29
:1000CA00011201FA7F287E001201767F011201FADD
:1000DA007F0C7E001201767F011201FA7F027E00F8
:1000EA001201767F011201FA7F017E001201767FEA
:0400FA00010201FA04
:1001D400D083D082F8E4937012740193700DA3A3BA
:1001E40093F8740193F5828883E4737402936860CE
:0601F400EFA3A3A380DFCE
:00000001FF
