:020000040800F2
:10000000680200208D01000891010008930100089A
:100010009501000897010008990100080000000000
:100020000000000000000000000000009B0100082C
:100030009D010008000000009F010008A1010008C8
:10004000030E0008A3010008A3010008A301000893
:10005000A3010008A3010008150C0008A301000873
:10006000A3010008A3010008A3010008A3010008E0
:10007000A3010008A3010008A3010008A3010008D0
:10008000A3010008A3010008A3010008A3010008C0
:10009000A3010008A3010008A3010008A3010008B0
:1000A000A3010008A3010008A3010008A3010008A0
:1000B000A3010008510E0008A3010008A3010008D5
:1000C000A3010008A3010008A3010008A301000880
:1000D000A3010008A3010008A3010008A301000870
:1000E000510C0008A3010008A301000800F002F869
:1000F00000F03AF80AA090E8000C82448344AAF188
:100100000107DA4501D100F02FF8AFF2090EBAE885
:100110000F0013F0010F18BFFB1A43F0010318473B
:100120006014000080140000103A24BF78C878C121
:10013000FAD8520724BF30C830C144BF04680C60ED
:10014000704700000023002400250026103A28BF35
:1001500078C1FBD8520728BF30C148BF0B60704739
:100160001FB51FBD10B510BD00F037FF1146FFF7DA
:10017000F7FF00F0B4FA00F055FF03B4FFF7F2FF09
:1001800003BC00F09DFC000030BF000008480047A1
:10019000FEE7FEE7FEE7FEE7FEE7FEE7FEE7FEE737
:1001A000FEE7FEE703480449024A044B704700009B
:1001B000ED000008680000206802002068000020B0
:1001C00010B5022146F6781000F080FE43F2BC40E4
:1001D000FE49088010BD10B502214DF2F02000F05C
:1001E00075FE43F2BC40F949088010BD10B50221EC
:1001F00047F6906000F06AFE45F26040F3490880DF
:1002000010BD10B5FFF7F2FF43F2BC4000F0C4FA96
:10021000FFF7D6FF40F2654000F0BEFAFFF7D0FFCF
:1002200040F2654000F0B8FAFFF7CAFF40F26540BF
:1002300000F0B2FAFFF7C4FF40F2654000F0ACFAFC
:10024000FFF7BEFF40F2654000F0A6FAFFF7B8FFE7
:1002500040F2654000F0A0FAFFF7B2FF40F26540BF
:1002600000F09AFAFFF7ACFF40F2654000F094FA14
:10027000FFF7B1FF40F6CA0000F08EFAFFF7ABFFC0
:1002800040F6CA0000F088FAFFF7A5FF40F6CA0062
:1002900000F082FAFFF79FFF40F6CA0000F07CFAF8
:1002A000FFF799FF40F6CA0000F076FAFFF793FFD8
:1002B00040F6CA0000F070FAFFF78DFF40F6CA0062
:1002C00000F06AFAFFF787FF40F6CA0000F064FA10
:1002D000FFF776FF40F2654000F05EFAFFF770FF2F
:1002E00040F2654000F058FAFFF76AFF40F26540BF
:1002F00000F052FAFFF764FF40F2654000F04CFA5C
:10030000FFF75EFF40F2654000F046FAFFF758FF46
:1003100040F2654000F040FAFFF752FF40F26540BE
:1003200000F03AFAFFF74CFF40F2654000F034FA73
:10033000FFF751FF40F6CA0000F02EFAFFF74BFF1F
:1003400040F6CA0000F028FAFFF745FF40F6CA0061
:1003500000F022FAFFF73FFF40F6CA0000F01CFA57
:10036000FFF739FF40F6CA0000F016FAFFF733FF37
:1003700040F6CA0000F010FAFFF72DFF40F6CA0061
:1003800000F00AFAFFF727FF40F6CA0000F004FA6F
:10039000FFF721FF40F6CA0000F0FEF910BD10B5CE
:1003A000FFF724FF43F2BC4000F0F6F9FFF708FF27
:1003B00040F2654000F0F0F9FFF702FF40F26540BF
:1003C00000F0EAF9FFF7FCFE40F2654000F0E4F9C6
:1003D000FFF7F6FE40F2654000F0DEF9FFF7F0FEB1
:1003E00040F2654000F0D8F9FFF7EAFE40F26540C0
:1003F00000F0D2F9FFF7E4FE40F2654000F0CCF9DE
:10040000FFF7E9FE40F2654000F0C6F9FFF7E3FEB2
:1004100040F6CA0000F0C0F9FFF7DDFE40F6CA0062
:1004200000F0BAF9FFF7D7FE40F6CA0000F0B4F9C1
:10043000FFF7D1FE40F6CA0000F0AEF9FFF7CBFEA1
:1004400040F6CA0000F0A8F9FFF7C5FE40F6CA0062
:1004500000F0A2F9FFF7BFFE40F6CA0000F09CF9D9
:10046000FFF7AEFE40F6CA0000F096F9FFF7A8FECF
:1004700040F2654000F090F9FFF7A2FE40F26540BF
:1004800000F08AF9FFF79CFE40F2654000F084F925
:10049000FFF796FE40F2654000F07EF9FFF790FE10
:1004A00040F2654000F078F9FFF78AFE40F26540BF
:1004B00000F072F9FFF784FE40F2654000F06CF93D
:1004C000FFF789FE40F2654000F066F9FFF783FE12
:1004D00040F6CA0000F060F9FFF77DFE40F6CA0062
:1004E00000F05AF9FFF777FE40F6CA0000F054F921
:1004F000FFF771FE40F6CA0000F04EF9FFF76BFE01
:1005000040F6CA0000F048F9FFF765FE40F6CA0061
:1005100000F042F9FFF75FFE40F6CA0000F03CF938
:10052000FFF74EFE40F6CA0000F036F9FFF753FE23
:1005300040F6CA0000F030F910BD10B5FFF756FEC6
:1005400043F2BC4000F028F9FFF73AFE40F2654064
:1005500000F022F9FFF734FE40F2654000F01CF98C
:10056000FFF72EFE40F2654000F016F9FFF728FE77
:1005700040F2654000F010F9FFF722FE40F26540BE
:1005800000F00AF9FFF71CFE40F2654000F004F9A4
:10059000FFF721FE40F2654000F0FEF8FFF71BFE7A
:1005A00040F2654000F0F8F8FFF715FE40F6CA008B
:1005B00000F0F2F8FFF70FFE40F6CA0000F0ECF88A
:1005C000FFF709FE40F6CA0002E0000038040040D0
:1005D00000F0E2F8FFF7FFFD40F6CA0000F0DCF89B
:1005E000FFF7F9FD40F6CA0000F0D6F8FFF7F3FD7B
:1005F00040F6CA0000F0D0F8FFF7E2FD40F6CA006E
:1006000000F0CAF8FFF7DCFD40F6CA0000F0C4F8BD
:10061000FFF7D6FD40F2654000F0BEF8FFF7D0FDD1
:1006200040F2654000F0B8F8FFF7CAFD40F26540BF
:1006300000F0B2F8FFF7C4FD40F2654000F0ACF8FE
:10064000FFF7BEFD40F2654000F0A6F8FFF7B8FDE9
:1006500040F2654000F0A0F8FFF7BDFD40F26540B4
:1006600000F09AF8FFF7B7FD40F2654000F094F80B
:10067000FFF7B1FD40F6CA0000F08EF8FFF7ABFDC2
:1006800040F6CA0000F088F8FFF7A5FD40F6CA0062
:1006900000F082F8FFF79FFD40F6CA0000F07CF8FA
:1006A000FFF799FD40F6CA0000F076F8FFF793FDDA
:1006B00040F6CA0000F070F8FFF782FD40F6CA006D
:1006C00000F06AF8FFF77CFD40F6CA0000F064F81D
:1006D000FFF781FD40F6CA0000F05EF810BD88B05B
:1006E00020220AA1684600F042FC092000F08CF9A3
:1006F000482000F01BF84FF41651482000F0EEF9A6
:1007000000F050FA01E0FFF77CFDFCE70101010178
:1007100001010101010101010101010101010101C9
:100720000101010101010101010101014FF0E0217D
:10073000096921F004014FF0E0221161C21700EBBA
:100740005272D210224B1A701946097801EB4102FD
:10075000C2EBC1114FF6FF7202EAC1011D4A1180BE
:10076000704701461B4A12884A434FF0E0235A6102
:1007700000229A6101221A6100BF4FF0E022106945
:1007800010F0010F02D010F4803FF6D000224FF09D
:10079000E0231A619A61704701460D4A12784A4374
:1007A0004FF0E0235A6100229A6101221A6100BFD2
:1007B0004FF0E022106910F0010F02D010F4803FDA
:1007C000F6D000224FF0E0231A619A6170470000D2
:1007D0000000002002000020AC4A0A400243AC4B5B
:1007E0001A6070470146072323EA01021202A84B50
:1007F0001B1D18684FF6FF031840A64B1843104303
:10080000A34B1B1D186070472DE9F04780468946B1
:1008100014461D462046E11704EB91714FEAA10AE8
:10082000E11704EB91718910A4EB8101CFB2042090
:1008300000EBC700C7B22846FFF7D4FFC5F104009C
:1008400008FA00F60F20284100EA0900064306F0E6
:100850000F06202C0CDA904800684FF0010101FAD5
:1008600004F140EA01004FF0E021C1F800010DE081
:100870008A480068A4F120014FF0010202FA01F257
:1008800040EA02004FF0E021C1F80401844850F82A
:100890002A0006FA07F140EA0100814941F82A00DE
:1008A000BDE8F08770B504460B46CE1701EB96768F
:1008B000B010CE1701EB9676B610A1EB8606B60601
:1008C000350E784B9B6943F00103764EB3614FEAD6
:1008D000B63353F820300F26AE40B343724E46F87D
:1008E0002030334653F8203004FA05F633436E4E79
:1008F00046F820306D4B1E6801238B401E436B4B26
:100900001E6012F0010F08D0684B0C331B680126E3
:100910008E403343654E0C36336012F0020F08D020
:10092000624B08331B6801268E4033435F4E083606
:10093000336070BD00B500205A490861C8601420BA
:10094000486100208861C8610846006840F00100E5
:1009500008600846406856490840524948600846C1
:100960000068544908404F4908600846006820F470
:10097000802008600846406820F4FE00486000209F
:10098000886000214FF00060FFF726FF00BD10B522
:100990003F480830006840F004003D4908310860D5
:1009A0004048C06940F080503E49C86142484068B4
:1009B00040F48070404948600846006840F00400F8
:1009C00008600846006840F002000860FFF7DCFBA2
:1009D00010BD3048001D2E49091D086070470146B2
:1009E0004906304A926942F001022E4B9A612E4A22
:1009F000083A526822F0E0622B4B083B5A601A46D4
:100A000052680A435A60704730B504460025FFF724
:100A100091FF2448006840F480302249086000BFFC
:100A200020480068400CFBD04FF480601D494860AE
:100A3000A01EC4B20846406840EA844048600846A8
:100A4000406840F4803048601C48006840F0320044
:100A50001A4908601348006840F080701149086026
:100A600000BF10480068400EFBD00E48406840F0C0
:100A700002000C49486005E00A484068C0F3870559
:100A800005F00305022DF7D130BD000080FFFF1FE8
:100A900008ED00E00000FA0500E100E004E100E0FC
:100AA00000E400E0001002400800014000040140A2
:100AB0000000FFF8FFFFF6FE00700040002002403B
:100AC000014600BF704700BF324A128812F0400F43
:100AD000FAD0C2B22F4B1B1D1A8070472DE9F05F70
:100AE00005460E46300100F0EBFB81462A4905FB26
:100AF00001F000F0E5FB8246494600F0FFFA0746A8
:100B0000384600F0BDFB84B2204600F0D9FB834696
:100B1000394600F0B5FC82464FF0834100F0E4FB1B
:100B2000814600F0ADFB80464FF6FF7000EA0414EA
:100B300004EB080084B21948806940F004001749AA
:100B400088610846806940F48040886114480068E4
:100B500020F47F60124908600846006840F40B608A
:100B600008600E48C06840F480400C49C8600846E0
:100B7000C06820F48040C860064808300480001D2A
:100B8000008842F20C01084302490C310880BDE89C
:100B9000F09F00000038014040420F00001002406A
:100BA000040801401848806940F004001649886133
:100BB0000846806940F0200088611448006820F0F1
:100BC0000F00124908600846006840F00300086002
:100BD0000E480830006840F480700C490831086005
:100BE0000B48006820F470600949086008460068F6
:100BF00040F44070086006480C30006840F0040083
:100C000003490C310860704700100240040801409D
:100C10000014014010B50A20FFF7A3FD4448006806
:100C2000012810D14348006808B9012000E00020E5
:100C3000404908604048D0F8880108B9012000E028
:100C400000203E4908604FF001003D49086010BD9A
:100C500010B50A20FFF785FD3A48006840B93548CD
:100C6000006808B9012000E00020324908600AE06D
:100C70003548006838B93148006808B9012000E0FB
:100C800000202E4908604FF400502D4908604FF4B1
:100C90000040086010BD10B52C48806940F0040089
:100CA0002A4988610220FFF79AFE2948006820F04F
:100CB0000F00274908600846006840F008000860F7
:100CC000081D0068234908402149091D086008469D
:100CD0000068214908431E49091D08601C480C3062
:100CE000006840F400501A490C310860084600685A
:100CF00040F400400860022200210846FFF7D2FDC0
:100D000001220D210020FFF7CDFD01220F2100203F
:100D1000FFF7C8FD0223062219461846FFF774FDA7
:100D20000223282201211846FFF76EFD10BD0000A6
:100D300000012142A00121420080224288812242FA
:100D400014040140340121423C01214200100240C0
:100D500000080140FFFF0F0F0000808045F2555250
:100D6000364B1A601A46506091604AF6AA221A6001
:100D70004CF6CC421A6070474AF6AA202F49086008
:100D8000704770B506460C4615462D48C06940F4BC
:100D900000602B49C8612B48007830402949087011
:100DA0002948006840EAC5102749086008460068DD
:100DB00040F400700860084600684FF680710840F3
:100DC000214908600846006820430860081F006841
:100DD0001C49097841F0800108431B49091F08603C
:100DE0000223002203211846FFF70EFD70BD1649AD
:100DF000091F096800F07F021143134A121F116096
:100E0000704710B51048006800F07F030E48001FBF
:100E1000006800F07F049C4203DA0A480078FFF77C
:100E2000E6FF00200849091D08600848006808B965
:100E3000012000E000200549086010BD003000409E
:100E40000010024004000020042C0040888122424F
:100E50004248008810F0010F07D04148006808B9E7
:100E6000012000E000203E4908603C48008820F056
:100E700001003A490880704770B505460C4639486C
:100E8000C06940F002003749C86134481C30058011
:100E9000001F04803148001F008840F001002F49E6
:100EA000091F08800846008840F0400008802B4851
:100EB0001038008840F001002849103908800223CA
:100EC0001D2203210120FFF79FFC70BD254AD26936
:100ED00042F00202234BDA61234A126822F00F0229
:100EE000214B1A601A46126842F004021A601A1F57
:100EF000126822F070421B1F1A601A46126842F0F4
:100F000030421A60184A0832126842F08002164BCA
:100F100008331A60114A1C321080121F11800F4AC8
:100F20000832128842F4E0420C4B08331A801A4609
:100F3000128842F400621A80084A1032128842F085
:100F40001002064B10331A80DA13044B103B1A8040
:100F50001A46128842F001021A80704710040040BD
:100F6000888122420010024004080140704710B5F9
:100F7000203AC0F00B80B1E81850203AA0E8185091
:100F8000B1E81850A0E81850BFF4F5AF5FEA027C52
:100F900024BFB1E81850A0E8185044BF18C918C0C1
:100FA000BDE810405FEA827C24BF51F8043B40F862
:100FB000043B08BF7047D20728BF31F8023B48BF47
:100FC00011F8012B28BF20F8023B48BF00F8012B85
:100FD00070477047704770477047754600F028F8B3
:100FE000AE4605006946534620F00700854618B016
:100FF00020B5FFF7D7F8BDE820404FF000064FF0CE
:1010000000074FF000084FF0000B21F00701AC463D
:10101000ACE8C009ACE8C009ACE8C009ACE8C0095C
:101020008D4670470446AFF300802046FFF7A5F8D1
:10103000004870470800002090EA010F48BF81F087
:10104000004100F12E82421A3CBF801A89184FEAF3
:10105000D0524FF07F4C1CEA410FA2EBD15318BF86
:101060009CEA026F00F03B804FF0004C4CEA0020FD
:101070004CEA012121FA03FC10EB0C0C1ED202F108
:10108000FF325FEA1C2040EBC25038BF70471CF0B3
:101090007F0F4FEA400C18BFBCF17F4F38BF70473D
:1010A000C3F12003994008BF20F00100BCF17F4F3D
:1010B00038BF7047A0F1C04000F0DDB94FEA3C00F6
:1010C000000A40EBC25028BF1CF0FF0F4FEA400C53
:1010D000E6D018BFBCF17F4F38BF7047EAE79CEA03
:1010E000026F05D010EA5C0F08BF00F000407047A7
:1010F00010B500F07AF900BF64FBBE3E4FF47F0CE0
:101100001CEAD0121EBF1CEAD11392EA0C0F93EA1C
:101110000C0F00F0858090EA010F48BF42F4807206
:1011200040F4000C41F400002CF07F4120F07F409F
:1011300000B58142A2EB03020FF2081CACEB504E4B
:10114000C0F100009EF800E04FEA4E0E00FB0EFCDE
:1011500038BF49004FEA2C1C02F5FA020CFB0EF3D3
:101160004FEACE1E4FEA112C4FEAC1210EEB635E0F
:1011700042EB22420EFB0CFC4FEA1C5300FB031116
:101180004FEA112C4FEA01310EFB0CFC4FEADC4C0C
:1011900000FB0C11C14228BF09184CEB03335DF86A
:1011A00004EB10EB410143EBC250B2F57C0F38BFAA
:1011B000704729D512F0F00F1CBF00F1C04000F0BD
:1011C00000407047008182838485868788898B8C64
:1011D0008D8E8F919293959697999A9C9D9FA0A2A0
:1011E000A3A5A7A8AAACAEB0B2B3B5B7B9BCBEC0F0
:1011F000C2C5C7C9CCCED1D4D7D9DCDFE2E6E9EC91
:10120000F0F3F7FAFE0000004FEA400C0CF1807C8E
:10121000BCF17E4F28BF7047B0F1C04000F02BB941
:1012200090EA010F0CEAD11348BF42F48072624584
:1012300038BF634507D213F47F0F16D080EA010050
:1012400000F00040704710B500F0CFF8097EFC3E7A
:1012500000F005B880EA010000F00040704780EA25
:10126000010000F0004000F006B912F47F0F04BF47
:101270000248704780EA010000F0FDB80000C07F1E
:10128000C10DD1F19E0206DB4FEA002343F000437B
:1012900023FA02F07047004207D54FEA4001B1F14E
:1012A000FE4F02D24FF00000704710B500F09DF8DD
:1012B00049922480002070476FEA200070470000A8
:1012C000B0FA80F310FA03F2C3F19D030AD0D905F6
:1012D00001EB1220530638BF704700F1010008BF30
:1012E00020F00100704700004FF47F0C1CEAD01280
:1012F0001EBF1CEAD11392EA0C0F93EA0C0F00F008
:10130000478090EA010F48BF42F480724FF0004CD2
:101310004CEA00204CEA012102EB0302A0FB01137E
:10132000A2F50002002918BF43F001035B0028BFAB
:101330004FEA330342EB22425FEA132C4CEBC250DC
:101340002EBFBCEB436FB2F57C0F70474FEA036CC6
:10135000BCF1004F08BF20F00100B2F57C0F38BF90
:1013600070470BD582F0FF0212F5803FC8BF70476F
:1013700000F1C040D8BF00F00040704700F5000CFD
:101380005FEA4C0C48BF7047B0F1C04000F073B842
:1013900090EA010F0CEAD11348BF42F48072624513
:1013A00038BF634504D280EA010000F00040704776
:1013B00010B500F01AF800BF8900013E00F007B830
:1013C00000F009B85FEA410C5FEA1C6C08D080EAC3
:1013D000010000F050B85FEA400C5FEA1C6CF6D1E7
:1013E0004FF00040A0F5800070470EF1020E2EF085
:1013F000030E5EF8044B244204D44FEA4102B2F1DA
:101400007F4F11D84FEA4003B3F17F4F0CD80ED174
:101410004FEAD07CB2F17F4F0CEB4C0C0CF1020C7C
:1014200008BF4CEBD17C04E04FF0080C01E04FEA20
:10143000D17C0CEB4C0324FA03F404F00704B4F160
:10144000040C06D20EEB840CBDE810404CF0010CED
:101450006047DFE80CF0070802024FF00040A0F5FB
:10146000800010BD0846420018BFD2F1807288BFCC
:1014700000F0004010BDFF2141EAD050C005704788
:1014800080F0004090EA010F7FF5DDAD81F0004172
:1014900000F007B890EA010F48BF81F000413FF526
:1014A000D2AD421A04D882F00042A0EB02001144EF
:1014B0004FEAD0524FF07F4C1CEA410FA2EBD153C0
:1014C00018BF9CEA026F4AD04FF0004C4CEA002053
:1014D0004CEA012121FA03FCB0EB0C0C0FD412F002
:1014E000FE0F36D05FEA4C001DD5001240EBC25013
:1014F00038BF70471CF03F0F18BF70470BE0A2F1D8
:1015000001025FEA1C2040EBC25038BF70471CF05C
:101510007F0F18BF7047C3F12003994014BF401ECE
:1015200020F00100704780084FEA122308BF70477F
:10153000B0FA80FCA2EB0C02CCF1280C60FA0CF0A3
:1015400093EA122F04BF00EBC25070474FEAC370FA
:101550007047130A5FEADC1008BF7047F6E79CEAA1
:10156000026F04D010EA5C0F08BF0020704710B56E
:10157000FFF73BFF40DFF63E81F000407047000080
:10158000A015000800000020080000002801000845
:10159000A8150008080000206002000044010008AF
:0815A000000000007F000000C4
:04000005080000ED02
:00000001FF
