:030000000201EE0C
:0C01EE00787FE4F6D8FD7581250202350B
:10039300C0F9A4B0999282F880908883C6A1868E12
:1003A300202049522D616464723A202D2D4820206B
:1003B30000202049522D6374726C3A202D2D482061
:0203C300200018
:04044A00020A000A98
:1001460075A0FFD2B2D295D2947F0A7E001203C563
:100156001202D3E4FF120441E4F521E5219003A342
:1001660093FF6007120327052180F07F40120441A8
:10017600E4F521E5219003B493FF600712032705F8
:100186002180F075A88175880112027A7F0A12040F
:100196002FE50A70F4E50B14B4080050EC9001B199
:1001A60075F003A4C58325F0C583730201C9020156
:1001B600CB0201D00201D50201DA0201DF0201E41D
:1001C6000201E9800A75903F80BF75902D80BA754F
:1001D600900880B575901080B075902080AB7590B2
:0801E6004080A675908080A105
:03000300020006F2
:0D000600C0E0C0F0C083C082C0D075D00043
:10001300752400C2A87F0F12042F30B205D2A802A4
:10002300013B20B2077F0112042F80F67522007571
:10003300230030B2077F0112042F80F620B2077F1E
:100043000112042F80F630B2137F0112042F05240E
:10005300E524C3941E40EFD2A802013B7414252269
:10006300F8C000E6FFC313D000F6E524C3940840AC
:100073000974142522F8E64480F67524000523E567
:1000830023C3940840AC0522E522C3940440A0E5B1
:1000930015F465146005D2A802013BE517F4651653
:1000A3006005D2A802013BE514540FF518E514C40A
:1000B300540FF519E516540FF51AE516C4540FF548
:1000C3001BE518D394094004743780027430251853
:1000D300F518E519D3940940047437800274302568
:1000E30019F519E51AD39409400474378002743062
:1000F300251AF51AE51BD39409400474378002745A
:1001030030251BF51B7F0B120441AF191203277F08
:100113000C120441AF181203277F4B120441AF1B8B
:100123001203277F4C120441AF1A1203271204054E
:08013300851808851909D2A8FE
:0B013B00D0D0D082D083D0F0D0E032D2
:10040500E4F5257F0412042FB2950525E525C3944F
:050415006440F0D295E7
:01041A0022BF
:10042F00AD071FED600BE4FEEEC3940D50F20E808E
:01043F00F7C5
:010440002299
:10027A00E5A0B4FE06750A00750B01E5A0B4FD06FB
:10028A00750A00750B02E5A0B4FB06750A00750B2A
:10029A0003E5A0B4F706750A00750B04E5A0B4EFF0
:1002AA0006750A00750B05E5A0B4DF06750A007528
:1002BA000B06E5A0B4BF06750A00750B07E5A0B4E6
:0902CA007F06750A00750B08227D
:1003C500EF1FAA0670011E4A6019E4FCFDC3ED94F7
:1003D500FAEC6480948050E8000000000DBD000137
:0303E5000C80EA9F
:0103E80022F2
:10041B00C2A6D2A5D2A700000000E580339201C28C
:03042B00A7A20184
:01042E0022AB
:1003E90012041B40FBC2A6C2A5C2A700008F800051
:0C03F900000000D2A700000000C2A722F4
:10035F0012041B40FBC2A6C2A5C2A700008F8000DB
:10036F00000000D2A700000000C2A7EF540FC4F88E
:10037F00540FC868FF8F8000000000D2A700000054
:04038F0000C2A722DF
:09044100EF4480FF7E0002035F1E
:1003270012041B40FBD2A6C2A5C2A78F8000000003
:1003370000D2A700000000C2A7D2A6C2A5C2A7008C
:10034700000000EF540FC454F0F58000000000D205
:08035700A700000000C2A7226C
:1002D3007F387E001203E97F011203C57F387E0059
:1002E3001203E97F011203C57F287E001203E97F11
:1002F300011203C57F287E0012035F7F011203C52D
:100303007F0C7E0012035F7F011203C57F027E0014
:1003130012035F7F011203C57F017E0012035F7F1B
:04032300010203C50B
:1001FA00020146E493A3F8E493A34003F68001F2D4
:10020A0008DFF48029E493A3F85407240CC8C33305
:10021A00C4540F4420C8834004F456800146F6DFD4
:10022A00E4800B010204081020408090044AE47E16
:10023A00019360BCA3FF543F30E509541FFEE493C9
:10024A00A360010ECF54C025E060A840B8E493A390
:10025A00FAE493A3F8E493A3C8C582C8CAC583CABB
:10026A00F0A3C8C582C8CAC583CADFE9DEE780BE73
:01044E0000AD
:00000001FF
