:0300000002029366
:0C029300787FE4F6D8FD7581200201445C
:10021C002052656420436F6E74726F6C2000202036
:0F022C0049522D434F44453A202D2D48202000A4
:10014400D2B2D295D2947F0A7E001201F81200F046
:10015400E4FF12029FE4F50FE50F90021C93FF6089
:100164000712018C050F80F07F4012029FE4F50F07
:10017400E50F90022A93FF600712018C050F80F0AF
:0801840075A88175880180FE59
:03000300020006F2
:0D000600C0E0C0F0C083C082C0D075D00043
:10001300751200C2A87F0F12028130B205D2A80266
:1000230000E520B2077F0112028180F6751000758A
:10003300110030B2077F0112028180F620B2077FE0
:100043000112028180F630B2137F01120281051280
:10005300E512C3941E40EFD2A80200E574082510F0
:10006300F8C000E6FFC313D000F6E512C3940840BE
:100073000974082510F8E64480F67512000511E5A9
:1000830011C3940840AC0510E510C3940440A0E5E7
:1000930009F465086004D2A88048E508540FF50DFB
:1000A300E508C4540FF50EE50DD3940940047437E5
:1000B30080027430250DF50DE50ED39409400474C8
:1000C3003780027430250EF50E7F4B12029FAF0E60
:1000D30012018C7F4C12029FAF0D12018C1202573A
:0200E300D2A8A1
:0B00E500D0D0D082D083D0F0D0E03229
:10025700E4F5137F04120281B2950513E513C394E5
:050267006440F0D29597
:01026C00226F
:10028100AD071FED600BE4FEEEC3940D50F20E803E
:01029100F775
:010292002249
:1001F800EF1FAA0670011E4A6019E4FCFDC3ED94C6
:10020800FAEC6480948050E8000000000DBD000105
:030218000C80EA6D
:01021B0022C0
:10026D00C2A6D2A5D2A700000000E580339201C23C
:03027D00A7A20134
:01028000225B
:10023B0012026D40FBC2A6C2A5C2A700008F8000B0
:0C024B00000000D2A700000000C2A722A3
:1001C40012026D40FBC2A6C2A5C2A700008F800028
:1001D400000000D2A700000000C2A7EF540FC4F82B
:1001E400540FC868FF8F8000000000D2A7000000F1
:0401F40000C2A7227C
:09029F00EF4480FF7E000201C45F
:10018C0012026D40FBD2A6C2A5C2A78F8000000050
:10019C0000D2A700000000C2A7D2A6C2A5C2A70029
:1001AC00000000EF540FC454F0F58000000000D2A2
:0801BC00A700000000C2A72209
:1000F0007F387E0012023B7F011201F87F387E00BC
:1001000012023B7F011201F87F287E0012023B7F22
:10011000011201F87F287E001201C47F011201F84C
:100120007F0C7E001201C47F011201F87F027E0065
:100130001201C47F011201F87F017E001201C47F09
:04014000010201F8BF
:00000001FF
