:020000040800F2
:10000000680200209101000895010008970100088E
:10001000990100089B0100089D01000800000000F4
:100020000000000000000000000000009F01000828
:10003000A101000800000000A3010008A5010008BC
:1000400099090008A7010008A7010008A7010008F6
:10005000A7010008A701000879070008A701000808
:10006000A7010008A7010008A7010008A7010008D0
:10007000A7010008A7010008A7010008A7010008C0
:10008000A7010008A7010008A7010008A7010008B0
:10009000A7010008A7010008A7010008A7010008A0
:1000A000A7010008A7010008A7010008A701000890
:1000B000A7010008F9090008A7010008A701000826
:1000C000A7010008A7010008A7010008A701000870
:1000D000A7010008A7010008A7010008A701000860
:1000E000B3070008A7010008A701000800F002F804
:1000F00000F03CF80AA090E8000C82448344AAF186
:100100000107DA4501D100F031F8AFF2090EBAE883
:100110000F0013F0010F18BFFB1A43F0010318473B
:10012000F40F000014100000103A24BF78C878C102
:10013000FAD8520724BF30C830C144BF04680C60ED
:10014000704700000023002400250026103A28BF35
:1001500078C1FBD8520728BF30C148BF0B60704739
:100160001FB500F04AFF1FBD10B510BD00F0F3FC35
:100170001146FFF7F5FF00F03BF800F011FD03B466
:10018000FFF7F2FF03BC00F03FFA000030BF0000B1
:1001900008480047FEE7FEE7FEE7FEE7FEE7FEE76A
:1001A000FEE7FEE7FEE7FEE703480449024A044B88
:1001B00070470000ED000008680000206802002081
:1001C0006800002010B5082142F2283000F05AFCE7
:1001D00041F294102149088010BD10B5082144F265
:1001E000506000F04FFC41F294101C49088010BD93
:1001F00038B500200090092000F0A1F9482000F057
:100200002FF84FF41651482000F00BFA00F074FA62
:100210001FE000241BE01DF8040048B9082142F249
:10022000283000F02FFC41F294100C4908800CE0BB
:100230001DF80400012808D1082144F2506000F0A4
:1002400021FC41F29410054908806D1C641C022CAD
:10025000E1D3022DDDD3002038BD0000380400407A
:100260004FF0E021096921F004014FF0E022116113
:10027000C21700EB5272D2101F4B1A701946097840
:100280004FF47A7251431D4A1180704701461B4A50
:1002900012884A434FF0E0235A6100229A610122FA
:1002A0001A6100BF4FF0E022106910F0010F02D078
:1002B00010F4803FF6D000224FF0E0231A619A61DB
:1002C000704701460C4A12784A434FF0E0235A61C6
:1002D00000229A6101221A6100BF4FF0E0221069EA
:1002E00010F0010F02D010F4803FF6D000224FF042
:1002F000E0231A619A61704700000020020000208C
:10030000AF4A0A400243AF4B1A60704701460723C9
:1003100023EA01021202AC4B18684FF6FF0300EA11
:100320000300AA4B40EA030040EA02004FF0E0233A
:10033000C3F80C0D70472DE9F047804689461446F6
:100340001D462046E11704EB91714FEAA10AE1171F
:1003500004EB91718910A4EB8101CFB2042000EB72
:10036000C700C7B22846FFF7D1FFC5F1040008FA5D
:1003700000F60F20284100EA0900064306F00F06A8
:10038000202C0CDA924800684FF0010101FA04F1C8
:1003900040EA01004FF0E021C1F800010DE08D4876
:1003A0000068A4F120014FF0010202FA01F240EAD4
:1003B00002004FF0E021C1F80401874850F82A00FC
:1003C00006FA07F10843844941F82A00BDE8F0879E
:1003D00070B504460B46CE1701EB9676B010CE17DB
:1003E00001EB9676B610A1EB8606B606350E7B4B72
:1003F0009B6943F00103794EB3614FEAB63353F87A
:1004000020300F26AE40B343754E46F820303346B9
:1004100053F8203004FA05F63343714E46F8203085
:10042000704B1E684FF0010303FA01F346EA03061E
:100430006D4BC3F8006412F0010F0AD06B4B1B68C0
:100440004FF0010606FA01F643EA0603664EC6F8C7
:100450000C3412F0020F0AD0654B1B684FF00106F6
:1004600006FA01F643EA06035F4EC6F8083470BD8B
:1004700000B5002059490861C86014204861002077
:100480008861C8610846006840F0010008600846BD
:100490004068584908405149486008460068564934
:1004A00008404E4908600846006820F48020086033
:1004B0000846406820F4FE00486000208860002163
:1004C0004FF00060FFF71CFF00BD10B54B480068FF
:1004D00040F004004FF0E021C1F8100D3F48C06922
:1004E00040F080503D49C8614548406840F4807004
:1004F000434948600846006840F004000860084628
:10050000006840F002000860FFF740FE10BD2F4871
:10051000001D2D4908607047014649062F4A92691F
:1005200042F001022D4B9A612F4A526822F0E0629C
:100530002D4B5A601A4652680A435A60704730B5CC
:1005400004460025FFF794FF2448006840F48030FB
:100550002249086000BF21480068400CFBD04FF4DE
:1005600080601E494860A01EC4B20846406840EA48
:10057000844048600846406840F480304860214824
:10058000006840F032001F4908601448006840F0DD
:1005900080701249086000BF10480068400EFBD010
:1005A0000E48406840F002000C49486005E00B48E6
:1005B0004068C0F3870505F00305022DF7D130BD73
:1005C00080FFFF1F08ED00E00CED00E00000FA05E1
:1005D00000E100E004E100E000E400E0001002407F
:1005E0000800014000040140000001400C040140EB
:1005F000080401400000FFF8FFFFF6FE10ED00E0E8
:100600000070004000200240014600BF704700BF5C
:10061000314A128812F0400FFAD0C2B22F4B1A8022
:1006200070472DE9F05F05460E46300100F00AFCE8
:1006300081462B4905FB01F000F004FC8246494647
:1006400000F01EFB0746384600F0DCFB84B2204673
:1006500000F0F8FB8346394600F0DBFC82464FF0A1
:10066000834100F003FC814600F0CCFB804624016E
:1006700004EB080084B21B48806940F0040019496B
:1006800088610846806940F48040886116480068A7
:1006900020F47F601549C1F804080846D0F8040822
:1006A00040F40B60C1F804080E48C06840F4804074
:1006B0000C49C8600846C06820F48040C8600C48F7
:1006C000A0F808480B48008842F20C0140EA0100FB
:1006D00008490880BDE8F09F003801400438014017
:1006E00040420F0000100240040801400000014099
:1006F000003001400C3801401B48806940F0040084
:10070000194988610846806940F0200088611748CF
:10071000006820F00F001649C1F804080846D0F818
:10072000040840F00300C1F804080846D0F80C089B
:1007300040F48070C1F80C080E48D0F8000420F492
:1007400070600C49C1F800040846D0F8000440F479
:100750004070C1F800040846D0F80C0440F00400D2
:10076000C1F80C047047000000100240040801406A
:10077000000001400010014010B50A20FFF786FD7F
:1007800048480068012810D14748006808B901208E
:1007900000E00020444908604448D0F8880108B9C6
:1007A000012000E000204249086001204149086022
:1007B00010BD10B50A20FFF769FD3F48006840B939
:1007C0003948006808B9012000E000203649086077
:1007D0000AE03A48006838B93548006808B901208D
:1007E00000E00020324908604FF4005031490860B1
:1007F0004FF400403249C1F8140410BD10B531481F
:10080000806940F004002F4988610220FFF784FED0
:100810002D48006820F00F002949C1F8000808465B
:10082000D0F8000840F00800C1F800082748006828
:10083000274900EA01002249C1F80408234800685A
:10084000244940EA01001E49C1F804080846D0F8CE
:100850000C0840F40050C1F80C080846D0F80C0809
:1008600040F40040C1F80C084FF002024FF00001C4
:100870000846FFF7ADFD01220D210020FFF7A8FD7E
:1008800001220F210020FFF7A3FD022306221946B3
:100890001846FFF750FD0223282201211846FFF7D2
:1008A0004AFD10BD00012142A001214200802242E8
:1008B0008881224214040140340121423C0121423A
:1008C00000000140001002400008014004080140FF
:1008D000FFFF0F0F0000808045F255523D4B1A601C
:1008E0001A46506091604AF6AA221A604CF6CC4231
:1008F0001A6070474AF6AA2036490860704770B5FA
:1009000004460D4616463448C06940F4006032493A
:10091000C8613249097804EA01003049087030485A
:10092000006840EAC6102F49C1F8040C0846D0F808
:10093000040C40F40070C1F8040C294800684FF61C
:10094000807100EA01002749C1F8040C0846D0F87C
:10095000040C40EA0500C1F8040C234800681F4954
:10096000097841F0800140EA01001E49C1F8000CFD
:100970004FF002034FF000024FF003011846FFF75B
:10098000DAFC70BD1849096800F07F0241EA0201F3
:10099000144AC2F8001C704710B51148006800F0F6
:1009A0007F031048D0F8000C00F07F049C4203DA6B
:1009B0000A480078FFF7E6FF00200C4908600C4861
:1009C000D0F8880108B9012000E00020094908603A
:1009D00010BD000000300040001002400400002064
:1009E000042C004000200040002C0040082C004057
:1009F00000802242888122424C48008810F0010F7A
:100A000007D04B48006808B9012000E000204849A1
:100A100008604648008820F001004FF08041A1F8AE
:100A20001004704770B504460D464248C06940F056
:100A300002004049C861404804804FF08040A0F85F
:100A40002854B0F80C0440F001004FF08041A1F8A8
:100A50000C040846B0F80C0440F04000A1F80C0467
:100A60000846B0F8000440F00100A1F800044FF07F
:100A700002034FF01D024FF003014FF00100FFF79A
:100A80005AFC70BD2B4AD26942F00202294BDA614E
:100A90002A4A126822F00F02294BC3F804281A468A
:100AA000D2F8042842F00402C3F804281A46D2F807
:100AB000002822F07042C3F800281A46D2F8002815
:100AC00042F03042C3F800281A46D2F80C2842F00F
:100AD0008002C3F80C284FF08042A2F82C04A2F840
:100AE0002814B2F8182442F4E0424FF08043A3F8EF
:100AF00018241A46B2F8182442F40062A3F8182405
:100B00001A46B2F8202442F010020E4B1A804FF41D
:100B100000424FF08043A3F800244FF08042B2F827
:100B2000002442F00102084B1A8070471004004074
:100B300088812242001002402C0400400408014039
:100B4000000001402004004000040040704770474E
:100B5000704770477047754600F028F8AE460500AC
:100B60006946534620F00700854618B020B5FFF7C8
:100B70001BFBBDE820404FF000064FF000074FF090
:100B800000084FF0000B21F00701AC46ACE8C009AB
:100B9000ACE8C009ACE8C009ACE8C0098D467047B4
:100BA0000446AFF300802046FFF7E9FA004870479B
:100BB00008000020004870470C00002090EA010F58
:100BC00048BF81F0004100F13682421A3CBF801AD2
:100BD00089184FEAD0524FF07F4C1CEA410FA2EB2C
:100BE000D15318BF9CEA026F00F03B804FF0004CDD
:100BF0004CEA00204CEA012121FA03FC10EB0C0C1A
:100C00001ED202F1FF325FEA1C2040EBC25038BF17
:100C100070471CF07F0F4FEA400C18BFBCF17F4FAC
:100C200038BF7047C3F12003994008BF20F001008E
:100C3000BCF17F4F38BF7047A0F1C04000F0E4B96D
:100C40004FEA3C00000A40EBC25028BF1CF0FF0FE7
:100C50004FEA400CE6D018BFBCF17F4F38BF704759
:100C6000EAE79CEA026F05D010EA5C0F08BF00F0CB
:100C70000040704710B500F07AF900BF64FBBE3E3B
:100C80004FF47F0C1CEAD0121EBF1CEAD11392EA6B
:100C90000C0F93EA0C0F00F0858090EA010F48BF1B
:100CA00042F4807240F4000C41F400002CF07F41CB
:100CB00020F07F4000B58142A2EB03020FF2081C36
:100CC000ACEB504EC0F100009EF800E04FEA4E0E33
:100CD00000FB0EFC38BF49004FEA2C1C02F5FA025B
:100CE0000CFB0EF34FEACE1E4FEA112C4FEAC12146
:100CF0000EEB635E42EB22420EFB0CFC4FEA1C53F0
:100D000000FB03114FEA112C4FEA01310EFB0CFCE2
:100D10004FEADC4C00FB0C11C14228BF09184CEB18
:100D200003335DF804EB10EB410143EBC250B2F525
:100D30007C0F38BF704729D512F0F00F1CBF00F1AF
:100D4000C04000F000407047008182838485868720
:100D500088898B8C8D8E8F919293959697999A9C7A
:100D60009D9FA0A2A3A5A7A8AAACAEB0B2B3B5B7E9
:100D7000B9BCBEC0C2C5C7C9CCCED1D4D7D9DCDFBF
:100D8000E2E6E9ECF0F3F7FAFE0000004FEA400C6F
:100D90000CF1807CBCF17E4F28BF7047B0F1C040A1
:100DA00000F032B990EA010F0CEAD11348BF42F4C7
:100DB0008072624538BF634507D213F47F0F16D0A7
:100DC00080EA010000F00040704710B500F0CFF855
:100DD000097EFC3E00F005B880EA010000F000400A
:100DE000704780EA010000F0004000F00DB912F4F5
:100DF0007F0F04BF0248704780EA010000F004B989
:100E00000000C07FC10DD1F19E0206DB4FEA002336
:100E100043F0004323FA02F07047004207D54FEA3F
:100E20004001B1F1FE4F02D24FF00000704710B503
:100E300000F09DF849922480002070476FEA20005E
:100E400070470000B0FA80F310FA03F2C3F19D037B
:100E50000AD0D90501EB1220530638BF704700F1C4
:100E6000010008BF20F00100704700004FF47F0C24
:100E70001CEAD0121EBF1CEAD11392EA0C0F93EAAF
:100E80000C0F00F0478090EA010F48BF42F48072D7
:100E90004FF0004C4CEA00204CEA012102EB030227
:100EA000A0FB0113A2F50002002918BF43F00103C3
:100EB0005B0028BF4FEA330342EB22425FEA132C68
:100EC0004CEBC2502EBFBCEB436FB2F57C0F7047AA
:100ED0004FEA036CBCF1004F08BF20F00100B2F5EF
:100EE0007C0F38BF70470BD582F0FF0212F5803FB0
:100EF000C8BF704700F1C040D8BF00F00040704745
:100F000000F5000C5FEA4C0C48BF7047B0F1C040E0
:100F100000F07AB890EA010F0CEAD11348BF42F40E
:100F20008072624538BF634504D280EA010000F058
:100F30000040704710B500F01AF800BF8900013E6C
:100F400000F007B800F009B85FEA410C5FEA1C6CDA
:100F500008D080EA010000F057B85FEA400C5FEA71
:100F60001C6CF6D14FF00040A0F5800070470EF1E8
:100F7000020E2EF0030E5EF8044B244204D44FEA16
:100F80004102B2F17F4F11D84FEA4003B3F17F4FD6
:100F90000CD80ED14FEAD07CB2F17F4F0CEB4C0C49
:100FA0000CF1020C08BF4CEBD17C04E04FF0080CB4
:100FB00001E04FEAD17C0CEB4C0324FA03F404F07B
:100FC0000704B4F1040C06D20EEB840CBDE810400B
:100FD0004CF0010C6047DFE80CF0070802024FF00C
:100FE0000040A0F5800010BD0846420018BFD2F1B5
:100FF000807288BF00F0004010BD10B5FFF7DAFD29
:101000004FF00001016010BDFF2141EAD050C00542
:10101000704780F0004090EA010F7FF5D6AD81F077
:10102000004100F008B8000090EA010F48BF81F0CD
:1010300000413FF5CAAD421A04D882F00042A0EB4D
:10104000020011444FEAD0524FF07F4C1CEA410F8E
:10105000A2EBD15318BF9CEA026F4AD04FF0004C6C
:101060004CEA00204CEA012121FA03FCB0EB0C0C05
:101070000FD412F0FE0F36D05FEA4C001DD50012DF
:1010800040EBC25038BF70471CF03F0F18BF70478D
:101090000BE0A2F101025FEA1C2040EBC25038BF16
:1010A00070471CF07F0F18BF7047C3F120039940B1
:1010B00014BF401E20F00100704780084FEA122341
:1010C00008BF7047B0FA80FCA2EB0C02CCF1280CF0
:1010D00060FA0CF093EA122F04BF00EBC250704785
:1010E0004FEAC3707047130A5FEADC1008BF70470D
:1010F000F6E79CEA026F04D010EA5C0F08BF0020FC
:10110000704710B5FFF733FF40DFF63E81F0004037
:1011100070470000341100080000002008000000A3
:10112000280100083C1100080800002060020000AF
:0C11300044010008000000007F000000E7
:04000005080000ED02
:00000001FF
