:030000000202E613
:0C02E600787FE4F6D8FD758120020194B9
:10026C00202049522D616464723A202D2D482020A3
:10027C0000202049522D6374726C3A202D2D482099
:02028C00200050
:10019400D2B2D295D2947F0A7E0012024812014054
:1001A400E4FF1202F2E4F50FE50F90026C93FF6096
:1001B400071201DC050F80F07F401202F2E4F50F14
:1001C400E50F90027D93FF60071201DC050F80F0BC
:0801D40075A88175880180FE09
:03000300020006F2
:0D000600C0E0C0F0C083C082C0D075D00043
:10001300751200C2A87F0F1202D430B205D2A80213
:10002300013520B2077F011202D480F675100075E6
:10003300110030B2077F011202D480F620B2077F8D
:10004300011202D480F630B2137F011202D40512DA
:10005300E512C3941E40EFD2A8020135740825109F
:10006300F8C000E6FFC313D000F6E512C3940840BE
:100073000974082510F8E64480F67512000511E5A9
:1000830011C3940840AC0510E510C3940440A0E5E7
:1000930009F465086005D2A8020135E50BF4650A89
:1000A3006005D2A8020135E508540FF50CE508C434
:1000B300540FF50DE50A540FF50EE50AC4540FF578
:1000C3000FE50CD394094004743780027430250C77
:1000D300F50CE50DD3940940047437800274302580
:1000E3000DF50DE50ED39409400474378002743086
:1000F300250EF50EE50FD39409400474378002747E
:1001030030250FF50F7F0B1202F2AF0D1201DC7FCA
:100113000C1202F2AF0C1201DC7F4B1202F2AF0F92
:100123001201DC7F4C1202F2AF0E1201DC1202AAA2
:02013300D2A850
:0B013500D0D0D082D083D0F0D0E032D8
:1002AA00E4F5137F041202D4B2950513E513C3943F
:0502BA006440F0D29544
:0102BF00221C
:1002D400AD071FED600BE4FEEEC3940D50F20E80EB
:0102E400F722
:0102E50022F6
:10024800EF1FAA0670011E4A6019E4FCFDC3ED9475
:10025800FAEC6480948050E8000000000DBD0001B5
:030268000C80EA1D
:01026B002270
:1002C000C2A6D2A5D2A700000000E580339201C2E9
:0302D000A7A201E1
:0102D3002208
:10028E001202C040FBC2A6C2A5C2A700008F80000A
:0C029E00000000D2A700000000C2A72250
:100214001202C040FBC2A6C2A5C2A700008F800084
:10022400000000D2A700000000C2A7EF540FC4F8DA
:10023400540FC868FF8F8000000000D2A7000000A0
:0402440000C2A7222B
:0902F200EF4480FF7E00020214BB
:1001DC001202C040FBD2A6C2A5C2A78F80000000AD
:1001EC0000D2A700000000C2A7D2A6C2A5C2A700D9
:1001FC00000000EF540FC454F0F58000000000D252
:08020C00A700000000C2A722B8
:100140007F387E0012028E7F011202487F387E00C7
:1001500012028E7F011202487F287E0012028E7FDB
:10016000011202487F287E001202147F0112024809
:100170007F0C7E001202147F011202487F027E0073
:100180001202147F011202487F017E001202147FC6
:04019000010202481E
:00000001FF
